:1000000029C100000C94A3140C94CE140C94F91480
:100010000C9424150C944F150C947A150C94A5157A
:100020000C94D01548C1000046C1000044C1000036
:1000300042C1000040C100003EC100003CC10000C0
:100040003AC100000C94B91936C1000034C1000057
:100050000C94001F30C100002EC100000C94091642
:100060002AC100000C9452100C94881024C1000086
:1000700022C1000020C100001EC100001CC1000000
:100080000C94E61918C1000016C1000014C100004C
:1000900012C1000010C100000EC100000CC1000020
:1000A0000AC1000008C100000C94131A04C100002A
:1000B00002C1000000C10000FEC000000C94401A04
:1000C000FAC00000F8C00000F6C000000C94FD105B
:1000D0000C943311F0C000000C94A8110C94DE11A4
:1000E000EAC000006F177417791783178D17061869
:1000F00097179F17A717B117BB17C517D417DE1788
:100100000618E817F217FC1728182B181A181E18CB
:10011000241862182F18331839183D184118471839
:100120004B184F186218551859185D1800000A0B23
:1001300002090C0D0E080703040100000000000076
:1001400000000000000000000000000000000000AF
:10015000000000000000000012111000000000006C
:10016000000000000000000000000000000000008F
:1001700000000102102020080810204010204080BC
:10018000020102010804020101020408102040805B
:1001900080402010080402018004020180402010E9
:1001A0000804020108040201010204081020408032
:1001B0000102040810204080050505050705080810
:1001C0000808020202020A0A0808040404040101E1
:1001D00001010101010103030303030303030407F6
:1001E00007070C0C0C0C0C0C0C0C0202020206068D
:1001F0000606060606060B0B0B0B0B0B0B0B000083
:1002000020002300260029002C002F0032000001CE
:10021000000003010601090100002200250028005A
:100220002B002E00310034000201000005010801FE
:100230000B0100002100240027002A002D003000BF
:10024000330001010000040107010A01B10EBA10D8
:100250006511101211241FBECFEFD1E2DEBFCDBF5A
:1002600000E00CBF15E0A0E0B2E0E6E1F8E400E059
:100270000BBF02C007900D92A63DB107D9F728E049
:10028000A6EDB5E001C01D92A13EB207E1F712E074
:10029000C4E5D2E000E006C022970109FE010BBFD1
:1002A0000E948620CC34D10780E00807A9F70E947D
:1002B000FC150C940924A4CECF92DF92EF92FF920A
:1002C0000F931F93E82FF92F05C001501109210941
:1002D000310961F1908196239417B9F305C001505B
:1002E00011092109310911F1908196239413F7CF57
:1002F000C12CD12CE12CF12C0AC08FEFC81AD80ADE
:10030000E80AF80A0C151D052E053F0579F08081D5
:100310008623841791F36C2D7D2D8E2D9F2D1F919B
:100320000F91FF90EF90DF90CF90089560E070E024
:1003300080E090E01F910F91FF90EF90DF90CF90C1
:100340000895DC01ED91FC910190F081E02D19946C
:10035000BF92CF92DF92EF92FF920F931F93CF93B2
:10036000DF93C2E0D0E0E12CE4E0FE2E8E01159593
:10037000079515950795680181E0C8266C2D8CE1DD
:100380000E949C18C801880F991F880F991F8C27FD
:100390009D2795958795BB24B394892B09F0B12CA3
:1003A0006B2D8AE10E949C188E010170112791E04B
:1003B0000927602F88E10E949C186C2D8DE10E9416
:1003C0009C186B2D8BE10E949C18602F89E10E9484
:1003D0009C1882E40E9426178E159F050CF47C0160
:1003E0002196C530D10511F681E091E2E91693E03E
:1003F000F9060CF480E0DF91CF911F910F91FF90EF
:10040000EF90DF90CF90BF90089561E082E20E946C
:10041000631861E084E20E94631861E084E00E9456
:10042000631861E085E20E94631861E083E20E9444
:10043000631861E086E00E94631861E086E20E9432
:10044000631861E088E20E94631861E085E00E9421
:10045000631861E089E20E94631861E087E20E940C
:10046000631861E087E00C946318CF93DF93EC018D
:1004700097FD0AC061E082E20E949C1860E084E27D
:100480000E949C18BE010CC060E082E20E949C1891
:1004900061E084E20E949C18662777276C1B7D0B25
:1004A00084E00E944B17DF91CF910895CF93DF93A3
:1004B000EC0197FD0AC061E085E20E949C1860E0B3
:1004C00083E20E949C18BE010CC060E085E20E949D
:1004D0009C1861E083E20E949C18662777276C1BBA
:1004E0007D0B86E00E944B17DF91CF910895CF934B
:1004F000DF93EC0197FD0AC061E086E20E949C1840
:1005000060E088E20E949C18BE010CC060E086E2B8
:100510000E949C1861E088E20E949C186627772759
:100520006C1B7D0B85E00E944B17DF91CF910895E6
:10053000CF93DF93EC0197FD0AC061E089E20E944E
:100540009C1860E087E20E949C18BE010CC060E02D
:1005500089E20E949C1861E087E20E949C1866274D
:1005600077276C1B7D0B87E00E944B17DF91CF91A3
:100570000895CF93DF93EC01BADFCE01DF91CF91E5
:1005800074CFCF93DF93EC01D3DFCE01DF91CF9116
:100590008DCFCF93DF93EC01ECDF882799278C1B5D
:1005A0009D0BDF91CF91EDCFCF93DF93EC018827A7
:1005B00099278C1B9D0BDDDFCE01DF91CF91E1CF21
:1005C00061E082E20E949C1861E084E20E949C1833
:1005D0006FEF70E084E00E944B1761E086E20E94BA
:1005E0009C1861E088E20E949C186FEF70E085E043
:1005F0000E944B1761E085E20E949C1861E083E253
:100600000E949C186FEF70E086E00E944B1761E03B
:1006100089E20E949C1861E087E20E949C186FEFBB
:1006200070E087E00C944B174091F80560E082E0A1
:1006300096E00E94F61C67E472E082E696E00E9473
:100640009C1268EE73E080E090E00E94821661E008
:1006500070E082E096E00E94E91B882341F06AE5A1
:1006600072E082E696E00E949C12109210020895B9
:10067000CF92EF920F93CC24C394E12C0EE120E2B1
:100680004FE161E282E096E00E94E71D90E09093E6
:10069000FB058093FA05009769F56EE672E082E645
:1006A00096E00E94911267E972E082E696E00E946D
:1006B000911264EA72E082E696E00E949C126AEA75
:1006C00072E082E696E00E94911264EB72E082E6AC
:1006D00096E00E949C126AEB72E082E696E00E942D
:1006E0009C126EE073E082E696E00E949C1267E442
:1006F00073E010C08130910519F467E873E00AC017
:100700008230910519F46DEF73E004C0039731F462
:100710006DE774E082E696E00E949C1282E096E02B
:100720000E94FA1B8093F905813059F038F082302D
:1007300059F0833079F46BEF74E008C06FEB74E02C
:1007400005C069E075E002C06EED74E082E696E0F7
:100750000E949C128091FA059091FB05019741F44B
:10076000E0916006F09161060F91EF90CF9019949F
:100770000F91EF90CF9008950F931F93CF93DF9336
:100780000CEF15E068E070E0F801808191810E9433
:10079000361BCEEFD5E069E070E0888199810E9438
:1007A000361B60910A0270910B02F80180819181E1
:1007B0000E946E1B60910C0270910D0288819981DC
:1007C0000E946E1B65E275E082E696E0DF91CF91B4
:1007D0001F910F910C949C1226E040E052EC61E0D6
:1007E00070E082E696E00E94F00FC6DF64EF71E0F1
:1007F00080E090E00E9482163BDF81E090E0089567
:10080000AF92BF92CF92DF92EF92FF920F931F931E
:10081000CF93DF93EC015B01880F991F9C01265F4A
:100820003D4F79018901FC01E450FA4F6F01F70156
:10083000208131812A153B0599F1C501821B930B5B
:10084000BC0197FF04C066277727681B790B0E94BD
:100850002520620F731FF80171836083F601808188
:1008600091810E946E1B68E375E082E696E00E942B
:1008700091124AE050E0BE0182E696E00E944113E8
:100880006FE375E082E696E00E949112F8016081C4
:1008900071814AE050E082E696E00E944813C7CF9B
:1008A000DF91CF911F910F91FF90EF90DF90CF904C
:1008B000BF90AF9008956FE070E081E090E0A0DF1E
:1008C0006AE570E080E090E09BDF64E670E080E045
:1008D00090E00E9482166AE570E081E090E090CF9F
:1008E0006FE070E081E090E08BDF63E070E080E03B
:1008F00090E086CF6FE070E081E090E081DF6CE116
:1009000070E080E090E07CCF6FE070E081E090E00C
:1009100077CF6AE570E081E090E072CF6F927F92CE
:100920008F929F92AF92BF92CF92DF92EF92FF92FF
:100930000F931F93CF93DF934091F80560E082E01F
:1009400096E00E94F61C60E078E082E096E00E946B
:10095000E91B811101C034DE60E078E082E096E0BE
:100960000E94E91B882309F4C0C0A5E0AA2EB12C7F
:10097000C0E0D0E0E12CF12C00E010E0C12CD12C43
:10098000B0E88B2E912C68E082E096E00E94F51B87
:100990003401681A710867E082E096E00E94F51B56
:1009A0009401281B3109C901E60CF71CC20FD31FA3
:1009B00038E1630E711C21E36216710418F43FEFF5
:1009C000C31AD30A4896C19710F40F5F1F4F81E0F6
:1009D000A81AB108A114B104B1F624E0C216D104DA
:1009E0003CF4C70165E070E00E9425205B0102C075
:1009F000A12CB12C043011053CF4CE0165E070E06F
:100A00000E942520EB0102C0C0E0D0E0B5016C1BC4
:100A10007D0B882777FD8095982F0E94B12120E0DB
:100A200030E040EC5FE30E9465220E947E216B0172
:100A30007C018B01B5016C0F7D1F882777FD8095A8
:100A4000982F0E94B12120E030E040EC5FE30E944B
:100A500065220E947E214B015C01EB01B601D7FEAD
:100A600004C0662777276C197D096F3F710551F027
:100A70004CF0C8010E9425208FEF869F8001879F40
:100A8000100D1124B401D7FF04C066277727681919
:100A900079096F3F710551F04CF0CE010E9425207D
:100AA0008FEF869FE001879FD00D1124011511055E
:100AB00021F4209711F484DD04C0C8015ADDCE0171
:100AC00060DD4AE050E0B80182E696E00E94411302
:100AD0006FE375E082E696E00E9491124AE050E0F2
:100AE000BE0182E696E00E94481360E070E182E079
:100AF00096E00E94D11B882349F060E074E082E018
:100B000096E00E94E91B882309F439C060E070E197
:100B100082E096E00E94D11B882341F060E074E0FF
:100B200082E096E00E94E91B81112BC060E070E238
:100B300082E096E00E94D11B8111EBDE60E070E460
:100B400082E096E00E94D11B8111B5DE60E070E882
:100B500082E096E00E94D11B8111D6DE61E070E058
:100B600082E096E00E94E91B8823D9F063E475E0F7
:100B700082E696E00E949C121092100212C0BADE29
:100B8000C5CFAEDE64EF71E080E090E00E94821697
:100B9000C0DE6CE271E080E090E00E9482168BDEA5
:100BA000C5CF62E370E080E090E00E94821680E0B2
:100BB00090E0DF91CF911F910F91FF90EF90DF9028
:100BC000CF90BF90AF909F908F907F906F9008953F
:100BD0006F927F928F929F92AF92BF92CF92DF924D
:100BE000EF92FF920F931F93CF93DF93EC018B0152
:100BF0005A016B01CC0CDD1CEE24D7FCE094FE2CDA
:100C0000812C912C8A149B04FCF4612C712C6016AD
:100C1000710694F461E084E30E949C18CE010E9466
:100C2000B91660E084E30E949C18CE010E94B916B8
:100C30008FEF681A780AEBCFC701B6010E948216BF
:100C40008FEF881A980ADECFDF91CF911F910F9115
:100C5000FF90EF90DF90CF90BF90AF909F908F90DC
:100C60007F906F9008950F931F93CF93DF93CDB72D
:100C7000DEB728970FB6F894DEBF0FBECDBF26E0D3
:100C800040E855E260E070E08CE997E00E94F00FE8
:100C900062E085E30E94631885E30E94D1188C010D
:100CA00065E070E080E090E00E94821685E30E949B
:100CB000D11821E030E0012B11F420E030E02817BA
:100CC000390731F065E070E080E090E00E94821624
:100CD00085E30E94D118892B09F046C060EC70E0D2
:100CE0008CE997E02EDB42E050E062E370E084EFB5
:100CF00091E06EDF85E30E94D1188C0165E070E021
:100D000080E090E00E94821685E30E94D11821E0E5
:100D100030E0012B11F420E030E02817390731F0E2
:100D200065E070E080E090E00E94821685E30E941A
:100D3000D118892BF9F261EC70E08CE997E001DBC6
:100D400048E050E0BE016F5F7F4F8FEF96E00E945A
:100D500080144F81552747FD50954053510968E253
:100D600070E084EF91E00CC069E575E08FEF96E0EC
:100D70000E949C1244E050E06EE170E080E991E056
:100D800027DF28960FB6F894DEBF0FBECDBFDF91E8
:100D9000CF911F910F910895CF92DF92EF92FF9222
:100DA000CF93DF93CDB7DEB728970FB6F894DEBFA9
:100DB0000FBECDBF61E370E08CE997E0C2DA48E096
:100DC00050E0BE016F5F7F4F8CE997E00E94801476
:100DD0008B81992787FD9095C09724E6289FB001C5
:100DE000299F700D11248C81992787FD9095C097BC
:100DF0004AE0489F9001499F300D1124620F731FF4
:100E00008D81992787FD9095C097680F791F882756
:100E100077FD8095982F0E94B1216B017C016F8135
:100E2000772767FD709560537109882777FD809556
:100E3000982F0E94B1212DEC3CEC4CEC5DE30E941C
:100E400065229B01AC01C701B6010E94AE206093F0
:100E500032067093330680933406909335062896B5
:100E60000FB6F894DEBF0FBECDBFDF91CF91FF90DC
:100E7000EF90DF90CF900895CF92DF92EF92FF92A4
:100E80008BDF6B017C012091560630915706409113
:100E900058065091590660E070E084E393E40E94A4
:100EA000AD209B01AC01C701B6010E94AE206B01D1
:100EB0007C0120E030E044EB53E40E94612287FD96
:100EC00009C020E030E044EB53E4C701B6010E94C2
:100ED000AD2011C020E030E0A901C701B6010E9499
:100EE000122187FF0AC020E030E044EB53E4C70141
:100EF000B6010E94AE206B017C01C0923E06D092EA
:100F00003F06E0924006F0924106C701B601FF900D
:100F1000EF90DF90CF9008958F929F92AF92BF9203
:100F2000CF92DF92EF92FF924B015C01A5DF9B0114
:100F3000AC01C501B4010E94AD206B017C0120E031
:100F400030E0A9010E94612287FD41C020E030E02D
:100F5000A901C701B6010E94612218162CF520E0F4
:100F600030E040EA50E4C701B6010E946122181641
:100F70002CF569E675E08FEF96E00E949C1288ECF4
:100F800090E007DB79DF9B01AC01C501B4010E9451
:100F9000AD206B017C0122E030E0AB01BC018FEFA2
:100FA00096E00E944414D2CF20E030E040EA50ECBA
:100FB000C701B6010E94122187FDDBCFFF90EF90A1
:100FC000DF90CF90BF90AF909F908F90F9CA20E0B4
:100FD00030E0A901C701B6010E94122187FF39C084
:100FE00020E030E0A901C701B6010E946122181675
:100FF0002CF520E030E040EA50E4C701B6010E9441
:1010000061221816DCF66EE675E08FEF96E00E941E
:101010009C1288EC90E0C8DA2FDF9B01AC01C5017F
:10102000B4010E94AD206B017C0122E030E0AB01F5
:10103000BC018FEF96E00E944414D2CF20E030E054
:1010400040EA50ECC701B6010E94122187FFB6CFDB
:10105000DACFFF90EF90DF90CF90BF90AF909F904E
:101060008F9008950F931F93CF93DF93CDB7DEB783
:10107000AC970FB6F894DEBF0FBECDBF1CA61BA663
:101080001E8A1D8A80E40E942617988F8F8B8FE31B
:101090000E9426179A8F898F8EE30E9426179C8FB5
:1010A0008B8F8DE30E9426179E8F8D8F8CE30E947D
:1010B000261798A38F8F87E30E9426179A83898328
:1010C00088E30E9426179C838B8389E30E9426175E
:1010D0009E838D838AE30E94261798878F838BE3F4
:1010E0000E9426179A87898760E070E084EB92E47B
:1010F00013DF80E40E9426179AA389A38FE30E943E
:1011000026179CA38BA38EE30E9426179EA38DA374
:101110008DE30E94261798A78FA38CE30E942617C1
:101120009AA789A787E30E9426179C878B8788E365
:101130000E9426179E878D8789E30E942617988B29
:101140008F878AE30E9426179A8B898B8BE30E94F4
:1011500026179C8B8B8BFE013196DE015796AE01D4
:101160004B5E5F4F00E010E080E090E02191319114
:10117000021713070CF489012D913D9182179307F3
:101180000CF4C901E417F50789F7081719070CF4DF
:101190008C0160E070E084E393E4BEDE61E775E01B
:1011A0008FEF96E00E949C124AE050E0B8018FEF6A
:1011B00096E00E94481381E0073911050CF480E0A5
:1011C000AC960FB6F894DEBF0FBECDBFDF91CF91C6
:1011D0001F910F91089587EE95E00E94441F0E9491
:1011E000B12160933606709337068093380690934A
:1011F00039060E947E21CB010895EF92FF920F9352
:101200001F93CF93DF9360E070E084E393E484DE88
:1012100084EB90E0AED984EB90E0B3D905E010E028
:10122000C0E0D0E0D8DFC80FD91F01501109011567
:101230001105C1F7CE0165E070E00E942520EB01A9
:1012400095E0E92EF12CC531D105CCF005E010E098
:10125000C2DFC80FD91F0150110901151105C1F7CF
:10126000CE01B7010E942520EB0184E40E94D11831
:10127000892B29F083E40E94D118892B21F7DF9173
:10128000CF911F910F91FF90EF909AC986ED95E055
:101290000E94441F0E94B12160933A0670933B065E
:1012A00080933C0690933D060E947E21CB010895D9
:1012B000CF92DF92EF92FF92CF93DF938CDFBC014E
:1012C000882777FD8095982F0E94B1216B017C01C2
:1012D00020E030E040EA51E40E94612218163CF41C
:1012E00043E050E06EE170E08CE291E071DC20E0E0
:1012F00030E040E451E4C701B6010E9461221816B3
:1013000034F488E790E035D988E790E00FC020E01A
:1013100030E040E251E4C701B6010E94122187FF8C
:1013200007C086EA9FEF25D986EA9FEF2AD9C6CF64
:1013300020E030E040E251E4C701B6010E946122A2
:1013400087FDBCCF20E030E040E451E4C701B601A6
:101350000E94122118160CF4B1CF32D941E050E0AE
:1013600064E170E08CE291E033DC60E070E084EBFB
:1013700092E4D2DD41E050E064E170E08CE291E083
:1013800027DC84DFBC01882777FD8095982F0E9499
:10139000B1216B017C0120E030E04CE852E40E9476
:1013A0006122181634F488E39FEFE3D888E39FEFB7
:1013B0000FC020E030E044E852E4C701B6010E94CB
:1013C000122187FF0DC088EC90E0D3D888EC90E024
:1013D000D8D86AE070E080E090E00E948216D1CF19
:1013E00020E030E044E852E4C701B6010E946122E7
:1013F00087FDC7CF20E030E04CE852E4C701B601DA
:101400000E94122118160CF4BCCFDAD841E050E04B
:1014100064E170E08CE291E0DBDB60E070E084E3AB
:1014200093E47ADD41E050E064E170E08CE291E029
:10143000CFDBD1DEBC01882777FD8095982F0E94F5
:10144000B1216B017C0120E030E040E151E40E94D9
:101450006122181634F484E690E08BD884E690E09C
:101460000FC020E030E040EE50E4C701B6010E941A
:10147000122187FF07C08CE99FEF7BD88CE99FEF93
:1014800080D8D7CF20E030E040EE50E4C701B6016D
:101490000E94612287FDCDCF20E030E040E151E4A1
:1014A000C701B6010E94122187FFC3CF89D841E04E
:1014B00050E064E170E08CE291E08ADB60E070E093
:1014C00087E893E429DD41E050E064E170E08CE2DC
:1014D00091E07EDB88EC90E04CD888EC90E051D82D
:1014E00083E40E94D118892B29F084E40E94D1184A
:1014F000892BB1F765D86FDEEC018CE99FEF39D805
:101500008CE99FEF3ED8BE01882777FD8095982F04
:101510000E94B12120E030E040E251E40E946122CB
:1015200018164CF7DF91CF91FF90EF90DF90CF909E
:1015300047C860E080E40E94631860E08FE30E9487
:10154000631860E08EE30E94631860E08DE30E9400
:10155000631860E08CE30E94631860E087E30E94F8
:10156000631860E088E30E94631860E089E30E94EA
:10157000631860E08AE30E94631860E08BE30E94D6
:10158000631861E088E10E94631861E08AE10E94CB
:10159000631861E08CE10E94631861E089E10E94B8
:1015A000631861E08BE10E94631861E08DE10E94A5
:1015B000631860E082E40E94631860E081E40C94A8
:1015C000631860E080E30E94631860E081E30E949A
:1015D000631860E082E00E94631860E083E30C948B
:1015E0006318A7DFEEDF61E084E30E94631862E026
:1015F00083E40E94631862E084E40E94631833CBA2
:10160000CF92DF92EF92FF920F931F93CF93DF93CE
:101610001F92CDB7DEB726E040E052EC61E070E00B
:101620008FEF96E0DDD400915A0610915B062CE511
:10163000C22E26E0D22EC8018C5596407C01C701EF
:101640008C0D9D1D0E94F323F60181936F01F0E63E
:10165000CF16F6E0DF0699F70C5F1F4F10935B067D
:1016600000935A06BEDF0E940502B6D880915C0640
:1016700090915D06A0915E06B0915F060196A11D56
:10168000B11D80935C0690935D06A0935E06B093B7
:101690005F060CE516E0E12CF12CF80161918F0159
:1016A000C70169830E94F3236981681719F0C70194
:1016B0000E94FB23FFEFEF1AFF0A84E0E816F10413
:1016C00061F741E050E060E971E08CE291E080DA9E
:1016D00063DB609356067093570680935806909389
:1016E00059060F90DF91CF911F910F91FF90EF90CE
:1016F000DF90CF900895CF9380E30E94D118892B7B
:1017000011F0C1E00CC083E30E94D118892BC9F706
:1017100081E30E94D118C1E0892B09F4C0E065E0A3
:1017200070E080E090E00E94821680E30E94D11871
:10173000892B41F483E30E94D11821E0892B19F40D
:1017400020E001C021E0C217F1F081E30E94D1182E
:10175000892BC9F465E070E080E090E00E94821679
:1017600080E30E94D118892B29F483E30E94D118C9
:10177000892B11F0C1E007C081E30E94D118C1E0BC
:10178000892B09F4C0E08C2FCF9108958F929F92FE
:10179000AF92BF92CF92DF92EF92FF928EE690E0EF
:1017A0000E94B9028EE690E00E94C1020E94531688
:1017B0004B015C0184E40E94D118892B29F083E459
:1017C0000E94D118892BA1F564E670E080E090E0DA
:1017D0000E9482160E94E00284E29FEF0E94B902FA
:1017E00084E29FEF0E94C1028AE69FEF0E94B90245
:1017F0008AE69FEF0E94C1027EDF8823E9F30E9400
:10180000E00260E070E084E393E486DB80913006E0
:101810009091310601969093310680933006FF90A7
:10182000EF90DF90CF90BF90AF909F908F900895F2
:101830000E9453166B017C01C818D908EA08FB08FE
:1018400081EAC8168FE0D806E104F1040CF0BCCFA1
:101850000E94A801882309F4ADCF89EBC8168BE05C
:10186000D806E104F1040CF4A5CFAECF2F923F923D
:101870004F925F926F927F928F929F92AF92BF92A0
:10188000CF92DF92EF92FF920F931F93CF93DF934C
:1018900000D000D0CDB7DEB762E0E62EF12C1E827C
:1018A0001D8200E010E06701D594C794D594C794D9
:1018B000560121E0A2266A2D8CE10E949C18C601E7
:1018C000880F991F880F991F8E259F2595958795BD
:1018D00099249394892B09F0912C692D8AE10E9417
:1018E0009C18670131E0C322DD2481E0C8266C2DFD
:1018F00088E10E949C186A2D8DE10E949C18692D38
:101900008BE10E949C186C2D89E10E949C1882E456
:101910000E9426176C0181E40E9426170C0D1D1DE4
:10192000ED81FE81E80FF91FFE83ED83FFEFEF1AD3
:10193000FF0A27E0E216F10409F0B5CF8AE30E941E
:1019400026174C0188E30E9426171C018FE30E9492
:1019500026179A8389838DE30E9426179C838B83A5
:101960008FE30E9426176C018EE30E9426177C01EC
:10197000B601882777FD8095982F0E94B1212AE92A
:1019800039E949E95EE30E9465222B013C01B70178
:10199000882777FD8095982F0E94B12126E636E6AC
:1019A00046EA5FE30E9465229B01AC01C301B201DC
:1019B0000E94AE206B017C018DE30E942617BC01C2
:1019C000882777FD8095982F0E94B1212AE939E96F
:1019D00049E95EE30E9465229B01AC01C701B601A3
:1019E0000E94AE206B017C0188E30E9426173C0117
:1019F00089E30E9426175C01B301882777FD809553
:101A0000982F0E94B1212AE939E949E95EE30E9451
:101A100065222B013C01B501882777FD8095982F21
:101A20000E94B12126E636E646EA5FE30E9465227F
:101A30009B01AC01C301B2010E94AE202B013C010D
:101A40008AE30E942617BC01882777FD8095982F8E
:101A50000E94B1212AE939E949E95EE30E94652241
:101A60009B01AC01C301B2010E94AE202B013C01DD
:101A7000C0924606D0924706E0924806F092490688
:101A800060934A0670934B0680934C0690934D06E4
:101A900020E030E84EE054E40E94612218165CF029
:101AA00020E030E84EE054E4C701B6010E94612214
:101AB00018160CF068C0A7019601C301B2010E947C
:101AC0006122181664F520E030E44EEC54E4C301C2
:101AD000B2010E94612218160CF494C0B40162197C
:101AE0007309882777FD8095982F0E94B1216B019B
:101AF0007C0120E030E040E751E40E9461221816AA
:101B00000CF459C001E010E020E030E040E751EC77
:101B1000C701B6010E94122187FD4AC048C0A70133
:101B20009601C301B2010E94122187FF44C020E048
:101B300030E045EA54E4C701B6010E94612218165C
:101B40000CF475C069817A818B819C81681B790B4B
:101B5000882777FD8095982F0E94B1216B017C0129
:101B600020E030E040E751EC0E94122187FD2AC0BE
:101B700020E030E040E751E4C701B6010E94612255
:101B80001816CCF054C0B801ED81FE816E1B7F0B9E
:101B9000882777FD8095982F0E94B12101E010E001
:101BA00020E030E0A9010E94612218160CF000E04C
:101BB000C801892B39F488E790E00E94B90288E7D0
:101BC00090E006C088E89FEF0E94B90288E89FEF86
:101BD00026960FB6F894DEBF0FBECDBFDF91CF9132
:101BE0001F910F91FF90EF90DF90CF90BF90AF903B
:101BF0009F908F907F906F905F904F903F902F902D
:101C00000C94C1028BE59FEF0E94B9028BE59FEF18
:101C10000E94C10266E970E080E090E00E948216B6
:101C20000E94E00260E070E087E893E414C08BE576
:101C30009FEF0E94B9028BE59FEF0E94C10266E907
:101C400070E080E090E00E9482160E94E00260E076
:101C500070E084EB92E460D960E070E084E393E4A8
:101C600095DD0E94E0026CE271E080E090E0269653
:101C70000FB6F894DEBF0FBECDBFDF91CF911F919D
:101C80000F91FF90EF90DF90CF90BF90AF909F901B
:101C90008F907F906F905F904F903F902F900C941B
:101CA0008216CF92DF92EF92FF92CF93DF93DEDD29
:101CB000C0913006D0913106C430D105C4F364EF31
:101CC00071E080E090E00E948216CCD98823D9F0A0
:101CD000EAD76B017C01CADDE6D76C197D098E0954
:101CE0009F09209130063091310661377741810597
:101CF000910518F4C217D30771F3E90168EC70E09D
:101D000080E090E0E0CF79DADF91CF91FF90EF9023
:101D1000DF90CF9008950E941403809110028823D1
:101D200019F00E948E04F9CF43E050E062E370E0C6
:101D300084EF91E00E94E805B4DF43E050E062E305
:101D400070E084EF91E00E94E805B2DA0E94890415
:101D500048E050E068E270E080E991E00E94E80528
:101D6000FFCFCF93DF9383E090E051D7EC010E9447
:101D70006D1AD093FD05C093FC0583E090E047D732
:101D8000EC010E946D1AD093FF05C093FE0583E01D
:101D900090E03DD7EC010E946D1AD0930106C093EC
:101DA00000064BE050E06CE070E087EE95E00E94AA
:101DB0002B1F4DE050E063E070E086ED95E0DF9191
:101DC000CF910C942B1FFC01818D228D90E0805CC3
:101DD0009F4F821B91098F7399270895FC01918D64
:101DE000828D981731F0828DE80FF11D858D90E07E
:101DF00008958FEF9FEF0895FC01918D828D9817C4
:101E000061F0828DDF01A80FB11D5D968C91928DDE
:101E10009F5F9F73928F90E008958FEF9FEF0895DB
:101E200081EB90E1892B39F080E090E0892B19F06B
:101E300098D1811123C080E090E0892B41F080E0AF
:101E400090E0892B21F00E94000081111AC08CE5DE
:101E500091E1892B39F080E090E0892B19F02CD2A8
:101E6000811112C087E092E1892B99F080E090E027
:101E7000892B79F0CCD281110AC008950E9400000C
:101E8000DACF0E940000E3CF0E940000EBCF0C9459
:101E900000000895FC01848DDF01A80FB11DA35A35
:101EA000BF4F2C91848D90E001968F739927848F7A
:101EB000A689B7892C93A089B1898C9180648C9371
:101EC000938D848D981306C00288F389E02D80815C
:101ED0008F7D80830895CF93DF93EC01888D8823D5
:101EE000C1F0EA89FB89808185FD05C0A889B9898F
:101EF0008C9186FD0EC00FB607FCF5CF808185FF63
:101F0000F2CFA889B9898C9185FFEDCFCE01C2DFD0
:101F1000E8CFDF91CF910895CF92DF92FF920F9398
:101F20001F93CF93DF931F92CDB7DEB76C0181E093
:101F3000D60158968C9358975B969C915B975C96CC
:101F40008C915C97981307C05096ED91FC91519736
:101F5000808185FD2DC0F601038D10E00F5F1F4FBE
:101F60000F731127F02EF601848DF81210C00FB6F2
:101F700007FCF9CFD6015096ED91FC9151978081E5
:101F800085FFF1CFC601698385DF6981ECCF838D41
:101F9000E80FF11DE35AFF4F6083D6015B960C9367
:101FA0005B975296ED91FC915397808180620CC0B3
:101FB000D6015696ED91FC91579760835096ED911E
:101FC000FC91519780818064808381E090E00F9044
:101FD000DF91CF911F910F91FF90DF90CF900895E7
:101FE000BF92CF92DF92EF92FF92CF93DF93EC01FB
:101FF0006A017B01B22EE889F98982E0808341156C
:1020000081EE580761057105A1F060E079E08DE38C
:1020100090E0A70196010E94382021503109410922
:1020200051095695479537952795211580E1380731
:1020300098F0E889F989108260E874E88EE190E010
:10204000A70196010E943820215031094109510908
:102050005695479537952795EC85FD853083EE8518
:10206000FF852083188EEC89FD89B082EA89FB897F
:10207000808180618083EA89FB8980818860808398
:10208000EA89FB89808180688083EA89FB89808175
:102090008F7D8083DF91CF91FF90EF90DF90CF9085
:1020A000BF9008951F920F920FB60F9211240BB696
:1020B0000F922F938F939F93EF93FF93E09172066C
:1020C000F09173068081E0917806F091790682FDA7
:1020D00012C0908180917B068F5F8F7320917C0668
:1020E000821751F0E0917B06F0E0EE59F94F958FA1
:1020F00080937B0601C08081FF91EF919F918F912A
:102100002F910F900BBE0F900FBE0F901F90189540
:102110001F920F920FB60F9211240BB60F922F93AE
:102120003F934F935F936F937F938F939F93AF935F
:10213000BF93EF93FF9382E696E0ACDEFF91EF91C1
:10214000BF91AF919F918F917F916F915F914F91CF
:102150003F912F910F900BBE0F900FBE0F901F90CD
:10216000189582E696E02FDE21E0892B09F420E025
:10217000822F0895109265061092640688EE93E00F
:10218000A0E0B0E08093660690936706A09368068F
:10219000B093690681EB95E09093630680936206A5
:1021A00085EC90E090936F0680936E0684EC90E04F
:1021B000909371068093700680EC90E09093730684
:1021C0008093720681EC90E090937506809374067C
:1021D00082EC90E0909377068093760686EC90E010
:1021E000909379068093780610927B0610927C0675
:1021F00010927D0610927E0608951F920F920FB6E0
:102200000F9211240BB60F922F938F939F93EF93FE
:10221000FF93E0910F07F09110078081E09115077F
:10222000F091160782FD12C09081809118078F5F90
:102230008F7320911907821751F0E0911807F0E091
:10224000E150F94F958F8093180701C08081FF916D
:10225000EF919F918F912F910F900BBE0F900FBE1A
:102260000F901F9018951F920F920FB60F92112486
:102270000BB60F922F933F934F935F936F937F9380
:102280008F939F93AF93BF93EF93FF938FEF96E05E
:1022900001DEFF91EF91BF91AF919F918F917F915F
:1022A0006F915F914F913F912F910F900BBE0F90C7
:1022B0000FBE0F901F9018958FEF96E084DD21E000
:1022C000892B09F420E0822F0895109202071092C2
:1022D000010788EE93E0A0E0B0E0809303079093BD
:1022E0000407A0930507B093060781EB95E0909350
:1022F00000078093FF0685ED90E090930C07809394
:102300000B0784ED90E090930E0780930D0780ED0E
:1023100090E09093100780930F0781ED90E09093E9
:1023200012078093110782ED90E090931407809339
:10233000130786ED90E0909316078093150710928F
:1023400018071092190710921A0710921B07089588
:102350001F920F920FB60F9211240BB60F922F936C
:102360008F939F93EF93FF93E091AC07F091AD07AC
:102370008081E091B207F091B30782FD12C0908195
:102380008091B5078F5F8F732091B607821751F048
:10239000E091B507F0E0E456F84F958F8093B507CC
:1023A00001C08081FF91EF919F918F912F910F90AC
:1023B0000BBE0F900FBE0F901F9018951F920F929B
:1023C0000FB60F9211240BB60F922F933F934F939A
:1023D0005F936F937F938F939F93AF93BF93EF938D
:1023E000FF938CE997E056DDFF91EF91BF91AF919C
:1023F0009F918F917F916F915F914F913F912F911D
:102400000F900BBE0F900FBE0F901F9018958CE988
:1024100097E0D9DC21E0892B09F420E0822F089590
:1024200010929F0710929E0788EE93E0A0E0B0E024
:102430008093A0079093A107A093A207B093A3074E
:1024400081EB95E090939D0780939C0785E391E055
:102450009093A9078093A80784E391E09093AB073A
:102460008093AA0780E391E09093AD078093AC0737
:1024700081E391E09093AF078093AE0782E391E010
:102480009093B1078093B00786E391E09093B307F0
:102490008093B2071092B5071092B6071092B70753
:1024A0001092B8070895CF92DF92EF92FF920F93A8
:1024B0001F93CF93DF937C016A01EB0100E010E0F2
:1024C0000C151D0571F06991D701ED91FC910190FA
:1024D000F081E02DC7011995892B19F00F5F1F4F6F
:1024E000EFCFC801DF91CF911F910F91FF90EF9037
:1024F000DF90CF9008956115710581F0DB010D909B
:102500000020E9F7AD0141505109461B570BDC0192
:10251000ED91FC910280F381E02D199480E090E030
:102520000895E9CFDC01ED91FC910190F081E02D5F
:1025300019946DEB75E0DFCF0F931F93CF93DF936B
:10254000EC01D9DF8C01CE01F4DF800F911FDF9108
:10255000CF911F910F9108958F929F92AF92BF924A
:10256000DF92EF92FF920F931F93CF93DF93CDB73C
:10257000DEB7A1970FB6F894DEBF0FBECDBF7C01CA
:10258000F42FD52ECB0119A2223008F42AE08E01B7
:102590000F5D1F4F822E912CA12CB12C6F2F7D2D02
:1025A000A50194010E943820F22FD32ECA010150B8
:1025B00011096A3014F4E0E301C0E7E3E60FD80143
:1025C000EC93232B242B252B49F7B801C70193DF6C
:1025D000A1960FB6F894DEBF0FBECDBFDF91CF91AD
:1025E0001F910F91FF90EF90DF90BF90AF909F9061
:1025F0008F900895CF92DF92EF92FF920F931F93E7
:10260000CF93DF93EC016A017B012115310579F449
:10261000E881F9810190F081E02D642FDF91CF9165
:102620001F910F91FF90EF90DF90CF9019942A3077
:102630003105D9F477FF18C06DE274DF8C014427AF
:102640005527BA014C195D096E097F092AE0CE01B0
:1026500083DF800F911FDF91CF911F910F91FF902A
:10266000EF90DF90CF9008952AE0B701A601CE0148
:10267000DF91CF911F910F91FF90EF90DF90CF905E
:102680006BCF9A01AB01662757FD6095762FB2CFCD
:102690000F931F93CF93DF93EC019A01AB01662751
:1026A00057FD6095762FA6DF8C01CE0142DF800FAB
:1026B000911FDF91CF911F910F9108954F925F92DB
:1026C0006F927F928F929F92AF92BF92CF92DF9242
:1026D000EF92FF920F931F93CF93DF93EC016A0168
:1026E0007B01B22E9A01AB01C701B6010E94C8223C
:1026F000882319F060EC75E027C026013701E894C3
:1027000077F82FEF3FEF4FE75FE7C301B2010E9479
:10271000C82281110DC02FEF3FEF4FE75FE7C301E4
:10272000B2010E94122118161CF464EC75E00CC072
:102730002FEF3FEF4FE75FE4C701B6010E94612230
:102740001816A4F468EC75E0CE01DF91CF911F91CB
:102750000F91FF90EF90DF90CF90BF90AF909F9040
:102760008F907F906F905F904F90C5CE2FEF3FEF8F
:102770004FE75FECC701B6010E94122187FDE2CF4F
:1027800020E030E0A901C701B6010E94122187FFB5
:1027900009C06DE2CE01C6DE8C01F7FAF094F7F8BD
:1027A000F09402C000E010E0A12C60E070E080E056
:1027B0009FE3AB1441F020E030E040E251E40E949E
:1027C0001621A394F6CF9B01AC01C701B6010E946C
:1027D000AE206B017C010E9483212B013C010E94F1
:1027E000AF219B01AC01C701B6010E94AD206B0176
:1027F0007C012AE0B301A201CE01AEDE080F191F51
:10280000BB2031F065E473E0CE0175DE080F191FBF
:102810007B2C772039F120E030E040E251E4C70121
:10282000B6010E9465226B017C010E947E214B0152
:10283000AA2497FCA094BA2C2AE030E0B501A401A8
:10284000CE01D8DE080F191FC501B4010E94B121C5
:102850009B01AC01C701B6010E94AD206B017C0158
:102860007A94D7CFC801DF91CF911F910F91FF903C
:10287000EF90DF90CF90BF90AF909F908F907F9020
:102880006F905F904F9008950F931F93CF93DF93B6
:10289000EC0114DF8C01CE014CDE800F911FDF9123
:1028A000CF911F910F9108950F931F93CF93DF93B3
:1028B000EC01F9D1688779878A879B87E881F9815C
:1028C0000680F781E02DCE01199597FF14C0EBD15A
:1028D000088519852A853B85601B710B820B930B3C
:1028E0000C811D812E813F8160177107820793073C
:1028F00028F38FEF9FEFDF91CF911F910F910895F4
:10290000CF92DF92EF92FF920F931F93CF93DF93BB
:102910007C016A01EB0100E010E00C151D0541F09F
:10292000C701C2DF97FD04C089930F5F1F4FF5CF2A
:10293000C801DF91CF911F910F91FF90EF90DF9031
:10294000CF90089508951F920F920FB60F92112401
:102950000BB60F922F933F934F935F936F937F9399
:102960008F939F93AF93BF93EF93FF93E0911502E3
:10297000F09116021995FF91EF91BF91AF919F9140
:102980008F917F916F915F914F913F912F910F9018
:102990000BBE0F900FBE0F901F9018951F920F92B5
:1029A0000FB60F9211240BB60F922F933F934F93B4
:1029B0005F936F937F938F939F93AF93BF93EF93A7
:1029C000FF93E0911702F09118021995FF91EF9192
:1029D000BF91AF919F918F917F916F915F914F9137
:1029E0003F912F910F900BBE0F900FBE0F901F9035
:1029F00018951F920F920FB60F9211240BB60F92DB
:102A00002F933F934F935F936F937F938F939F93F6
:102A1000AF93BF93EF93FF93E0911902F0911A02E5
:102A20001995FF91EF91BF91AF919F918F917F91F8
:102A30006F915F914F913F912F910F900BBE0F902F
:102A40000FBE0F901F9018951F920F920FB60F9206
:102A500011240BB60F922F933F934F935F936F9375
:102A60007F938F939F93AF93BF93EF93FF93E091E7
:102A70001B02F0911C021995FF91EF91BF91AF914C
:102A80009F918F917F916F915F914F913F912F9186
:102A90000F900BBE0F900FBE0F901F9018951F92B6
:102AA0000F920FB60F9211240BB60F922F933F93F4
:102AB0004F935F936F937F938F939F93AF93BF9346
:102AC000EF93FF93E0911102F09112021995FF919B
:102AD000EF91BF91AF919F918F917F916F915F9196
:102AE0004F913F912F910F900BBE0F900FBE0F9003
:102AF0001F9018951F920F920FB60F9211240BB6CC
:102B00000F922F933F934F935F936F937F938F9386
:102B10009F93AF93BF93EF93FF93E0911302F091D4
:102B200014021995FF91EF91BF91AF919F918F91F1
:102B30007F916F915F914F913F912F910F900BBEBD
:102B40000F900FBE0F901F9018951F920F920FB607
:102B50000F9211240BB60F922F933F934F935F93D5
:102B60006F937F938F939F93AF93BF93EF93FF9355
:102B7000E0911D02F0911E021995FF91EF91BF9116
:102B8000AF919F918F917F916F915F914F913F9105
:102B90002F910F900BBE0F900FBE0F901F901895A6
:102BA0001F920F920FB60F9211240BB60F922F9314
:102BB0003F934F935F936F937F938F939F93AF93C5
:102BC000BF93EF93FF93E0911F02F09120021995BC
:102BD000FF91EF91BF91AF919F918F917F916F91F5
:102BE0005F914F913F912F910F900BBE0F900FBEB1
:102BF0000F901F9018950895C7D0FDDF0E94000B1D
:102C0000C0E1DFE088D82097E9F30AD9FBCF0C9424
:102C1000CC221F920F920FB60F9211242F933F9345
:102C20008F939F93AF93BF9380913A0890913B0805
:102C3000A0913C08B0913D083091390823E0230F62
:102C40002D3720F40196A11DB11D05C026E8230FE4
:102C50000296A11DB11D2093390880933A089093E4
:102C60003B08A0933C08B0933D0880913E089091AA
:102C70003F08A0914008B09141080196A11DB11DE7
:102C800080933E0890933F08A0934008B09341087A
:102C9000BF91AF919F918F913F912F910F900FBE58
:102CA0000F901F9018952FB7F89460913A08709183
:102CB0003B0880913C0890913D082FBF08953FB795
:102CC000F89480913E0890913F08A0914008B091FF
:102CD000410826B5A89B05C02F3F19F00196A11DFC
:102CE000B11D3FBF6627782F892F9A2F620F711D64
:102CF000811D911D42E0660F771F881F991F4A951D
:102D0000D1F708958F929F92AF92BF92CF92DF92A8
:102D1000EF92FF926B017C01D2DF4B015C01C11489
:102D2000D104E104F104E1F064D2C9DF6819790942
:102D30008A099B09683E73408105910580F321E073
:102D4000C21AD108E108F10888EE880E83E0981EC7
:102D5000A11CB11CC114D104E104F10431F7DFCF8F
:102D6000FF90EF90DF90CF90BF90AF909F908F90AB
:102D700008958230910538F0880F991F880F991FA8
:102D800005970197F1F70895789484B5826084BD22
:102D900084B5816084BD85B5826085BD85B581605F
:102DA00085BDEEE6F0E0808181608083E1E8F0E0BF
:102DB0001082808182608083808181608083E0E8EE
:102DC000F0E0808181608083E1EBF0E080818460CD
:102DD0008083E0EBF0E0808181608083E1E9F0E0D6
:102DE000808182608083808181608083E0E9F0E07F
:102DF000808181608083E1EAF0E08081826080836D
:102E0000808181608083E0EAF0E08081816080835E
:102E1000E1E2F1E080818260808380818160808353
:102E2000E0E2F1E0808181608083EAE7F0E0808188
:102E300084608083808182608083808181608083E0
:102E40008081806880831092C1000895863308F0E5
:102E5000865320917B00982F9870277F922B909318
:102E60007B0087702091210290E4299F900111241A
:102E7000822B80937C0080917A00806480937A001A
:102E800080917A0086FDFCCF8091780020917900B6
:102E900090E0922B08951F93CF93DF93182FEB01AF
:102EA00061E011D1209711F460E004C0CF3FD1055B
:102EB00031F461E0812FDF91CF911F913DC1E12F6E
:102EC000F0E0E45DFE4F449150E0FA013197E231C9
:102ED000F10508F09BC0EE58FF4F0C94762084B5A6
:102EE000806884BDC7BD97C084B5806284BDC8BDFD
:102EF00092C080918000806880938000D093890088
:102F0000C093880088C08091800080628093800098
:102F1000D0938B00C0938A007EC08091800088602F
:102F200080938000D0938D00C0938C0074C08091FA
:102F3000B00080688093B000C093B3006CC08091F3
:102F4000B00080628093B000C093B40064C08091F0
:102F50009000806880939000D0939900C09398006F
:102F60005AC080919000806280939000D0939B0023
:102F7000C0939A0050C08091900088608093900028
:102F8000D0939D00C0939C0046C08091A0008068B3
:102F90008093A0008091A0008F7B8093A000D093AD
:102FA000A900C093A80037C08091A00080628093E0
:102FB000A000D093AB00C093AA002DC08091A000C8
:102FC00088608093A000D093AD00C093AC0023C074
:102FD00080912001806880932001D0932901C093C3
:102FE000280119C080912001806280932001D09334
:102FF0002B01C0932A010FC080912001886080932B
:103000002001D0932D01C0932C0105C0C038D105FB
:103010000CF04FCF49CFDF91CF911F91089590E0F1
:10302000FC013197E231F10508F04CC0EC57FF4F3D
:103030000C947620809180008F7703C0809180006F
:103040008F7D80938000089580918000877FF9CFE5
:1030500084B58F7702C084B58F7D84BD089580913B
:10306000B0008F7703C08091B0008F7D8093B00057
:103070000895809190008F7707C0809190008F7D98
:1030800003C080919000877F809390000895809185
:10309000A0008F7707C08091A0008F7D03C0809132
:1030A000A000877F8093A0000895809120018F77F2
:1030B00007C0809120018F7D03C080912001877F10
:1030C000809320010895CF93DF9390E0FC01EE58A8
:1030D000FE4F2491FC01E854FE4F8491882349F16E
:1030E00090E0880F991FFC01EE5CFD4FA591B49113
:1030F000885E9D4FFC01C591D4919FB7611108C0B6
:10310000F8948C91209582238C93888182230AC025
:10311000623051F4F8948C91322F309583238C9344
:103120008881822B888304C0F8948C91822B8C93A5
:103130009FBFDF91CF9108950F931F93CF93DF939C
:103140001F92CDB7DEB7282F30E0F901E45DFE4FC6
:103150008491F901EE58FE4F1491F901E854FE4FA5
:1031600004910023C1F0882319F0698358DF698135
:10317000E02FF0E0EE0FFF1FE85EFD4FA591B49148
:103180009FB7F8948C91611103C01095812301C001
:10319000812B8C939FBF0F90DF91CF911F910F9147
:1031A0000895CF93DF93282F30E0F901E45DFE4FBF
:1031B0008491F901EE58FE4FD491F901E854FE4F85
:1031C000C491CC2389F081112ADFEC2FF0E0EE0FBF
:1031D000FF1FE250FE4FA591B4912C912D2381E069
:1031E00090E021F480E002C080E090E0DF91CF9198
:1031F00008950895CF92DF92EF92FF920F931F935D
:10320000CF93DF936C018B017A01EC01CD5BD74F3B
:10321000888187FF04C0FB011182108223C02CE04B
:103220002C9DC0012D9D900D11242881AC01420FD1
:10323000511D27FD5A952091420830E0421753074F
:103240008CF42881AC01420F511D27FD5A959A013B
:10325000FA01EE0FFF1FE20FF31FE95BF74F20812A
:1032600026FD19C088818F5F88838CE08C9D90013A
:103270008D9D300D11248881A901480F511D87FDB6
:103280005A958091420890E048175907ACF488811C
:103290008C3034F111C02881820F911D27FD9A9541
:1032A000FC01EE0FFF1FE80FF91FE95BF74F80816C
:1032B00060E08F7341DFD6CFF80180819181049661
:1032C00080349C4918F480E49CE904C0F8018081B2
:1032D00091810496F701918380838FEF888340C0AA
:1032E000F801808191814881B901640F711D47FD0A
:1032F0007A95AB01FB01EE0FFF1FE40FF51FE95BB1
:10330000F74F41815281840F951FF701918380838C
:103310008881A901480F511D87FD5A95FA01EE0FCA
:10332000FF1FE40FF51FE95BF74F808186FF18C090
:103330008881280F311D87FD3A95F901EE0FFF1F97
:10334000E20FF31FE95BF74F808161E08F73DF913C
:10335000CF911F910F91FF90EF90DF90CF90ECCE27
:10336000DF91CF911F910F91FF90EF90DF90CF9061
:1033700008951F920F920FB60F9211240BB60F9261
:103380002F933F934F935F936F937F938F939F936D
:10339000AF93BF93EF93FF9348E850E064E870E089
:1033A00081E090E027DFFF91EF91BF91AF919F9176
:1033B0008F917F916F915F914F913F912F910F90DE
:1033C0000BBE0F900FBE0F901F9018951F920F927B
:1033D0000FB60F9211240BB60F922F933F934F937A
:1033E0005F936F937F938F939F93AF93BF93EF936D
:1033F000FF9348E950E064E970E082E090E0FADE93
:10340000FF91EF91BF91AF919F918F917F916F91BC
:103410005F914F913F912F910F900BBE0F900FBE78
:103420000F901F9018951F920F920FB60F921124B4
:103430000BB60F922F933F934F935F936F937F93AE
:103440008F939F93AF93BF93EF93FF9348EA50E01E
:1034500064EA70E083E090E0CDDEFF91EF91BF91F0
:10346000AF919F918F917F916F915F914F913F911C
:103470002F910F900BBE0F900FBE0F901F901895BD
:103480001F920F920FB60F9211240BB60F922F932B
:103490003F934F935F936F937F938F939F93AF93DC
:1034A000BF93EF93FF9348E251E064E271E080E064
:1034B00090E0A0DEFF91EF91BF91AF919F918F912E
:1034C0007F916F915F914F913F912F910F900BBE24
:1034D0000F900FBE0F901F90189520914208203337
:1034E000A0F431E0320F30934208FC012083822F98
:1034F00090E0FC01EE0FFF1FE80FF91FE95BF74FAB
:1035000088EB9BE09283818308952FEFFC01208359
:103510000895DF92EF92FF920F931F93CF93DF9363
:10352000EC01D62E7A0189018881803308F066C0CB
:1035300061E08D2DC8DD8881A82FB0E0FD01EE0F80
:10354000FF1FEA0FFB1FE95BF74F2D2D2F739081B3
:10355000907C922B908360E272E06E197F0977FF76
:1035600002C06D5F7F4F7595679575956795698307
:1035700040E659E0401B510B57FF02C04D5F5F4FC3
:1035800055954795559547954A836CE052D59CE0F3
:10359000899FB001112420E030E0A901460F571F98
:1035A000FA01EE0FFF1FE40FF51FE95BF74F908163
:1035B00096FD18C02F5F3F4F2C30310571F790E01A
:1035C0008130910521F51092800082E08093810086
:1035D0001092850010928400B19A80916F008260F1
:1035E00080936F00888190E0FC01EE0FFF1FE80FD1
:1035F000F91FE95BF74F8081806480838881DF91C8
:10360000CF911F910F91FF90EF90DF90089582303E
:10361000910569F41092900082E0809391001092DD
:1036200095001092940088BB80937100DBCF8330AB
:10363000910569F41092A00082E08093A10010929D
:10364000A5001092A40089BB80937200CBCF892B78
:1036500049F61092200182E0809321011092250109
:10366000109224018ABB80937300BCCF20E639E01E
:1036700040E252E04ECFFC018081803370F59181B1
:1036800028E830E0291B310997FD3395220F331FBD
:10369000220F331F621773077CF0928128E532E016
:1036A000291B310997FD3395220F331F220F331F3A
:1036B000621773070CF49B0122503109220F331F4C
:1036C0004FB7F89490E0FC01EE0FFF1FE80FF91FD1
:1036D000E95BF74F328321834FBF08954F925F928A
:1036E0006F927F92AF92BF92CF92DF92EF92FF9252
:1036F0000F931F93CF93DF93EC01603282E0780742
:103700000CF03FC077FD06C0653B71052CF064EB03
:1037100070E002C060E070E0898128E830E0281B9A
:10372000310987FD3395220F331F220F331F5901B3
:10373000CC24B7FCC094DC2C882777FD8095982F8B
:103740002A8148E552E0421B510927FD5395440F59
:10375000551F440F551F2A01662457FC6094762C90
:103760007F926F925F924F9214EBE12EF12C00E06A
:1037700010E020E030E0A901DCD30F900F900F9013
:103780000F90CE01DF91CF911F910F91FF90EF909D
:10379000DF90CF90BF90AF907F906F905F904F90F1
:1037A0006ACFFC01408D518D9A01209530952623DA
:1037B000372391E0232B09F490E0268937892427C9
:1037C00035272623372381E0232B09F480E0892342
:1037D0000895FC01808D918D8095909568237923C3
:1037E00081E0672B09F480E00895860F911DFC01AC
:1037F00080810895FC0183A5833031F0813031F060
:103800008C3031F483E0089581E0089582E00895DA
:1038100080E008953FB7F894DC015B96ED91FC9150
:103820005C9720815A968C91282B20833FBF089566
:103830003FB7F894DC015E96ED91FC915F97208193
:103840005D968C91282B20833FBF08958F929F9285
:10385000AF92BF92CF92DF92EF92FF920F931F939E
:10386000CF93DF93EC0100E010E0912CA62EBB2457
:10387000A7FCB094C12CD12C7601C394802EC50135
:10388000002E02C0959587950A94E2F780FF03C049
:10389000CE01CEDF0AC09FB7F894EE8DFF8D208158
:1038A0008D8D8095822380839FBF9FB7F894EB8D89
:1038B000FC8D20818A8D8095822380839FBF84E048
:1038C00090E057DAECA1FDA180819BA1892351F002
:1038D000B701A60104C0440F551F661F771F8A94C5
:1038E000D2F7942ACE0196DF0F5F1F4F08301105E3
:1038F00009F0C4CFCE019CDF83E090E03ADA892D55
:10390000DF91CF911F910F91FF90EF90DF90CF90BB
:10391000BF90AF909F908F9008953FB7F894DC01CF
:103920009196ED91FC919297208190968C91282B05
:1039300020833FBF08952FB7F894DC019196ED9155
:10394000FC919297308190968C918095832380830F
:103950002FBF0895CF92DF92EF92FF920F931F93A4
:10396000CF93DF93EC017B01C42EE5DF8701D12CDF
:10397000C8018E199F098C159D0534F4F8016191D9
:103980008F01CE0163DFF4CFCE01C7DF6AA570E0FF
:1039900080E090E0DF91CF911F910F91FF90EF9029
:1039A000DF90CF90AFC9CF93DF93EC0145E062E4A5
:1039B00072E0D0DF49E069E372E0CE01CBDF8CA595
:1039C000882329F045E062E272E0CE01C3DF8DA5D5
:1039D000882329F049E060E372E0CE01BBDF49E0D3
:1039E00067E272E0CE01DF91CF91B4CF2F923F9288
:1039F0004F925F927F928F929F92AF92BF92CF929F
:103A0000DF92EF92FF920F931F93CF93DF93CDB787
:103A1000DEB729970FB6F894DEBF0FBECDBF4C01BD
:103A2000762E142F40D9F401C6A0D7A0E0A4F1A4AB
:103A30006C197D098E099F0992D46B017C0120E0ED
:103A400030E84BEB54E43DD5181614F4C401ABDF59
:103A5000F40162A570E080E090E083D41B012C01AA
:103A60009B01AC01C701B601DDD387FF07C0A701E9
:103A70009601C201B10171D346D444D91123D9F0C2
:103A8000612F70E080E090E01F921F921F922FEF55
:103A90002F9320E4A22EB12CC12CD12CE12CF12C9F
:103AA0008701EA9420E030E0A90143D2162F0F905D
:103AB0000F900F900F90CE0101967C0189E0F701E5
:103AC00011928A95E9F781E0898382E48A837C8276
:103AD0001D8315E06E01FAE0CF0ED11CC401A8DEF3
:103AE000C40198DEC40127DF83E090E042D92701BA
:103AF0001401F20161912F01C401A8DEF10181934B
:103B00001F014C145D04A9F7F4018181893741F04C
:103B1000C40103DFF4018181807F803791F41CC0F0
:103B2000412C512C60E0C40191DEF401E40DF51D3F
:103B30008187FFEF4F1A5F0A8CE04816510491F716
:103B4000E7CFC40130DFF40162A570E080E090E0CF
:103B5000D9D8115009F0C2CFF4018181807F80371C
:103B600031F0F40182A58A3010F48F5F82A7F4014E
:103B7000808D918D978B868B83819481918F808F9F
:103B800092D8F40166A377A380A791A79181907F33
:103B900081E0903709F080E029960FB6F894DEBFF7
:103BA0000FBECDBFDF91CF911F910F91FF90EF908E
:103BB000DF90CF90BF90AF909F908F907F905F905D
:103BC0004F903F902F90089540E060E00FCF6F92AC
:103BD0007F928F929F92AF92BF92CF92EF92FF927D
:103BE0000F931F93CF93DF93CDB7DEB72B970FB60D
:103BF000F894DEBF0FBECDBF5C01862F70E0FB01E5
:103C0000EE58FE4FE491D5015A96EC93FB01E8542F
:103C1000FE4FE491F0E0EE0FFF1FE85EFD4F65916F
:103C20007491F501748F638F642F70E0FB01EE587F
:103C3000FE4FE491D5015D96EC93FB01E854FE4FF5
:103C4000E491F0E0EE0FFF1FE85EFD4F6591749187
:103C5000F501778F668F622F70E0FB01EE58FE4F03
:103C6000E491D5019096EC93FB01E854FE4FE4916A
:103C7000F0E0EE0FFF1FE85EFD4F65917491F501D6
:103C800072A361A3602F70E0FB01EE58FE4FE49138
:103C9000D5019396EC93FB01E854FE4FE491F0E0DC
:103CA000EE0FFF1FE250FE4F65917491F50175A371
:103CB00064A361E02A874B8706DA61E02A85822FB8
:103CC00002DA61E04B85842FFED960E0802FFBD9BA
:103CD00061E0802F31DAC501ABDDC5019BDDC50197
:103CE00073DFC50171DFD50111968C91813429F004
:103CF000833719F0893709F068C081E0F50182A7A0
:103D00000BE010E0FF24F39445E062E472E0C501AB
:103D100021DE83E090E02DD8C5018ADDC5017ADD82
:103D2000C50109DE83E090E024D84CEC842E45E008
:103D3000942EFE0131963F01D4016D914D01C501D4
:103D400085DDF30181933F01F5ED8F16F5E09F06C8
:103D500099F7C501E2DD8C81D5019B968C9349E0F2
:103D600069E372E0C501F6DDCC2039F045E062E29E
:103D700072E0C501EFDDF501F4A6EE2041F049E067
:103D800060E372E0C501E6DDD5019D96FC9249E055
:103D900067E272E0C501DEDDC50116DFF501818154
:103DA000EE2021F08937A9F0833789F0833789F035
:103DB000015011090115110571F0D5019A968C91E8
:103DC0009A978F5F9A968C939FCF81E005C083E08E
:103DD00003C080E001C082E02B960FB6F894DEBFEE
:103DE0000FBECDBFDF91CF911F910F91FF90EF904C
:103DF000CF90BF90AF909F908F907F906F900895DD
:103E00001F920F920FB60F9211240BB60F922F93A1
:103E10003F934F935F936F937F938F939F93AF9352
:103E2000BF93EF93FF93E091DB08F091DC081995C5
:103E3000FF91EF91BF91AF919F918F917F916F9182
:103E40005F914F913F912F910F900BBE0F900FBE3E
:103E50000F901F901895CF93DF93EC01862F6C8302
:103E60007D835F834E8360E02ED961E08E812BD904
:103E7000188A47EE53E060E070E04C875D876E87FC
:103E80007F87DF91CF9108950F931F93CF93DF9397
:103E900000D01F92CDB7DEB78C01FC0110861186D1
:103EA0001286138660E0868147D982E090E00E9406
:103EB000B91661E0F80186813FD98AE090E00E945E
:103EC000B91660E0F801868137D982E090E00E945F
:103ED000B91620EF39E442E050E061E0F801848156
:103EE0006DD09B01AC01F801608771878287938751
:103EF00069E170E080E090E029833A834B835C8342
:103F00000E948216A4E6B0E029813A814B815C814F
:103F1000F3D02AEF36E140E050E0CCD0CA01B9013D
:103F20000F900F900F900F90DF91CF911F910F91F5
:103F300008954F925F926F927F92AF92BF92CF920D
:103F4000DF92EF92FF920F931F93CF93DF93CDB742
:103F5000DEB729013A01621B730B840B950B2A898A
:103F60003B894C895D892A193B094C095D092A8BDB
:103F70003B8B4C8B5D8B9B01AC016A897B898C8967
:103F80009D8948D0E418F50806091709A80197018A
:103F900091D02A0D3B1D4C1D5D1DCA01B901DF9159
:103FA000CF911F910F91FF90EF90DF90CF90BF9036
:103FB000AF907F906F905F904F9008950F931F93F5
:103FC000762F90E0FC01EE58FE4F6491FC01E8541E
:103FD000FE4FE4917111762FF0E0EE0FFF1FE250DB
:103FE000FE4F8591949189019A013F70472F0E945D
:103FF0005C01611571058105910531F06F5F7F4F9F
:104000008F4F9F4F9F7003C060E070E0CB011F9106
:104010000F910895DB018F939F936ED0BF91AF9165
:10402000A29F800D911DA39F900DB29F900D112412
:104030000895991B79E004C0991F961708F0961B04
:10404000881F7A95C9F78095089597FB072E16F477
:10405000009406D077FD08D05DD007FC05D03EF473
:10406000909581959F4F0895709561957F4F089524
:10407000A1E21A2EAA1BBB1BFD010DC0AA1FBB1F6C
:10408000EE1FFF1FA217B307E407F50720F0A21BDE
:10409000B30BE40BF50B661F771F881F991F1A944B
:1040A00069F760957095809590959B01AC01BD0175
:1040B000CF010895052E97FB16F400940FD057FDFD
:1040C00005D0D6DF07FC02D046F408C050954095D5
:1040D000309521953F4F4F4F5F4F089590958095B4
:1040E000709561957F4F8F4F9F4F0895EE0FFF1F83
:1040F0000590F491E02D199421D0A59F900DB49FC7
:10410000900DA49F800D911D112408950790F691A4
:10411000E02D1994AA1BBB1B51E107C0AA1FBB1FAE
:10412000A617B70710F0A61BB70B881F991F5A9543
:10413000A9F780959095BC01CD010895A29FB0018B
:10414000B39FC001A39F700D811D1124911DB29FCB
:10415000700D811D1124911D08955058BB27AA2769
:104160000ED075C166D130F06BD120F031F49F3F95
:1041700011F41EF45BC10EF4E095E7FB51C1E92F89
:1041800077D180F3BA17620773078407950718F091
:1041900071F49EF58FC10EF4E0950B2EBA2FA02D71
:1041A0000B01B90190010C01CA01A0011124FF27E4
:1041B000591B99F0593F50F4503E68F11A16F040DF
:1041C000A22F232F342F4427585FF3CF46953795DE
:1041D0002795A795F0405395C9F77EF41F16BA0BA3
:1041E000620B730B840BBAF09150A1F0FF0FBB1F51
:1041F000661F771F881FC2F70EC0BA0F621F731F9A
:10420000841F48F4879577956795B795F7959E3FF6
:1042100008F0B3CF9395880F08F09927EE0F979584
:1042200087950895D9D008F481E008950CD00FC186
:1042300007D140F0FED030F021F45F3F19F0F0C01C
:10424000511139C1F3C014D198F39923C9F35523FF
:10425000B1F3951B550BBB27AA2762177307840779
:1042600038F09F5F5F4F220F331F441FAA1FA9F32F
:1042700033D00E2E3AF0E0E830D091505040E69521
:10428000001CCAF729D0FE2F27D0660F771F881F82
:10429000BB1F261737074807AB07B0E809F0BB0B71
:1042A000802DBF01FF2793585F4F2AF09E3F510595
:1042B00068F0B6C000C15F3FECF3983EDCF3869532
:1042C00077956795B795F7959F5FC9F7880F911D0B
:1042D0009695879597F90895E1E0660F771F881FF7
:1042E000BB1F621773078407BA0720F0621B730BAA
:1042F000840BBA0BEE1F88F7E095089504D06894FC
:10430000B111D9C00895BCD088F09F5790F0B92F53
:104310009927B751A0F0D1F0660F771F881F991F1A
:104320001AF0BA95C9F712C0B13081F0C3D0B1E02C
:104330000895C0C0672F782F8827B85F39F0B93F3C
:10434000CCF3869577956795B395D9F73EF490951C
:104350008095709561957F4F8F4F9F4F0895E8949A
:1043600009C097FB3EF490958095709561957F4FBD
:104370008F4F9F4F9923A9F0F92F96E9BB2793956B
:10438000F695879577956795B795F111F8CFFAF47B
:10439000BB0F11F460FF1BC06F5F7F4F8F4F9F4FAC
:1043A00016C0882311F096E911C0772321F09EE80A
:1043B000872F762F05C0662371F096E8862F70E070
:1043C00060E02AF09A95660F771F881FDAF7880F4A
:1043D0009695879597F90895990F0008550FAA0BA0
:1043E000E0E8FEEF16161706E807F907C0F0121608
:1043F0001306E407F50798F0621B730B840B950B0B
:1044000039F40A2661F0232B242B252B21F408955F
:104410000A2609F4A140A6958FEF811D811D0895FC
:1044200097F99F6780E870E060E008959FEF80EC67
:10443000089500240A94161617061806090608950A
:1044400000240A9412161306140605060895092E70
:104450000394000C11F4882352F0BB0F40F4BF2BDF
:1044600011F460FF04C06F5F7F4F8F4F9F4F08951F
:1044700057FD9058440F551F59F05F3F71F0479515
:10448000880F97FB991F61F09F3F79F087950895FA
:10449000121613061406551FF2CF4695F1DF08C019
:1044A000161617061806991FF1CF86957105610536
:1044B00008940895E894BB2766277727CB0197F9DE
:1044C00008958ADF08F48FEF08950BD0C0CFB1DFD5
:1044D00028F0B6DF18F0952309F0A2CFA7CF11245A
:1044E000EACFC6DFA0F3959FD1F3950F50E0551F9B
:1044F000629FF001729FBB27F00DB11D639FAA2739
:10450000F00DB11DAA1F649F6627B00DA11D661F87
:10451000829F2227B00DA11D621F739FB00DA11DA8
:10452000621F839FA00D611D221F749F3327A00D62
:10453000611D231F849F600D211D822F762F6A2FFE
:1045400011249F5750408AF0E1F088234AF0EE0F83
:10455000FF1FBB1F661F771F881F91505040A9F790
:104560009E3F510570F05CCFA6CF5F3FECF3983EC5
:10457000DCF3869577956795B795F795E7959F5FF7
:10458000C1F7FE2B880F911D9695879597F9089591
:1045900023DF880B990B0895CF93DF938230910529
:1045A00010F482E090E0E091DF08F091E00820E074
:1045B00030E0A0E0B0E0309739F1408151814817F8
:1045C0005907B8F04817590771F482819381109701
:1045D00029F013969C938E9312972CC09093E00829
:1045E0008093DF0827C02115310531F042175307AA
:1045F00018F0A901DB0101C0EF019A01BD01DF0143
:104600000280F381E02DD7CF21153105F9F0281B69
:10461000390B2430310580F48A819B816115710545
:1046200021F0FB019383828304C09093E008809380
:10463000DF08FE01329644C0FE01E20FF31F8193B2
:10464000919322503109398328833AC02091DD08A3
:104650003091DE08232B41F42091020230910302B5
:104660003093DE082093DD08209100023091010292
:104670002115310541F42DB73EB740910402509108
:104680000502241B350BE091DD08F091DE08E217EE
:10469000F307A0F42E1B3F0B2817390778F0AC0165
:1046A0004E5F5F4F2417350748F04E0F5F1F509342
:1046B000DE084093DD088193919302C0E0E0F0E0D2
:1046C000CF01DF91CF910895CF93DF93009709F445
:1046D00087C0FC01329713821282C091DF08D0910B
:1046E000E008209781F420813181280F391F8091C3
:1046F000DD089091DE088217930779F5F093DE08C4
:10470000E093DD086DC0DE0120E030E0AE17BF07AA
:1047100050F412964D915C9113979D0141155105EE
:1047200009F1DA01F3CFB383A28340815181840F71
:10473000951F8A179B0771F48D919C911197840F97
:10474000951F02969183808312968D919C91139769
:10475000938382832115310529F4F093E008E093D7
:10476000DF083EC0D9011396FC93EE9312974D914A
:104770005D91A40FB51FEA17FB0779F48081918141
:10478000840F951F0296D90111969C938E93828176
:10479000938113969C938E931297E0E0F0E08A81C8
:1047A0009B81009719F0FE01EC01F9CFCE01029632
:1047B00028813981820F931F2091DD083091DE0816
:1047C0002817390769F4309729F41092E0081092FD
:1047D000DF0802C013821282D093DE08C093DD0886
:1047E000DF91CF910895F999FECF92BD81BDF89ADE
:1047F000992780B50895262FF999FECF1FBA92BD4B
:1048000081BD20BD0FB6F894FA9AF99A0FBE0196B1
:064810000895F894FFCFAB
:104816000000E1082000010000001C005A005000C2
:1048260001A214A214A214A214A214A214A214A2E5
:104836001401014D000001014300005A5A5A5A5A08
:10484600014F00FFFF0300000001440001030000C8
:104856000000014300010052756E2072656D6F7491
:10486600655F636865636B28290052656D6F7465C3
:1048760020436F6E74726F6C20454E442100466F64
:10488600756E6420436F6E74726F6C6C65722C204B
:10489600636F6E66696775726564207375636365B9
:1048A600737366756C2000707265737375726573C9
:1048B600203D200066616C73650072756D626C65E3
:1048C600203D2000747275652900547279206F7539
:1048D6007420616C6C2074686520627574746F6EE8
:1048E600732C20582077696C6C207669627261742B
:1048F600652074686520636F6E74726F6C6C657288
:104906002C2066617374657220617320796F75203F
:104916007072657373206861726465723B00686FBC
:104926006C64696E67204C31206F7220523120779B
:10493600696C6C207072696E74206F75742074686F
:104946006520616E616C6F6720737469636B207696
:10495600616C7565732E004E6F74653A20476F2043
:10496600746F207777772E62696C6C706F727465DE
:10497600722E696E666F20666F7220757064617440
:10498600657320616E6420746F207265706F727437
:1049960020627567732E004E6F20636F6E74726FA0
:1049A6006C6C657220666F756E642C206368656337
:1049B6006B20776972696E672C2073656520726556
:1049C60061646D652E74787420746F20656E616203
:1049D6006C652064656275672E207669736974203C
:1049E6007777772E62696C6C706F727465722E6958
:1049F6006E666F20666F722074726F75626C657377
:104A0600686F6F74696E67207469707300436F6EA8
:104A160074726F6C6C657220666F756E6420627559
:104A260074206E6F7420616363657074696E6720AD
:104A3600636F6D6D616E64732E207365652072659C
:104A460061646D652E74787420746F20656E616282
:104A56006C652064656275672E20566973697420DB
:104A66007777772E62696C6C706F727465722E69D7
:104A76006E666F20666F722074726F75626C6573F6
:104A8600686F6F74696E67207469707300436F6E28
:104A960074726F6C6C6572207265667573696E6789
:104AA60020746F20656E746572205072657373751D
:104AB600726573206D6F64652C206D6179206E6F51
:104AC6007420737570706F72742069742E2000558F
:104AD6006E6B6E6F776E20436F6E74726F6C6C6563
:104AE60072207479706520666F756E642000477554
:104AF600697461724865726F20436F6E74726F6C71
:104B06006C657220666F756E642000576972656CFD
:104B160065737320536F6E79204475616C53686FAB
:104B2600636B20436F6E74726F6C6C657220666F78
:104B3600756E642000536572766F5F496E6974699D
:104B4600616C5F646F6E6500536572766F3A002024
:104B56002C200052656D6F746520436F6E74726F02
:104B66006C20454E44EFBC810049676F7265204357
:104B7600616C696272617465005368756E004E6996
:104B86000046696E6420696620626561636F6E2007
:104B96004F6E00556C747261736F756E6420746924
:104BA6006D65000900426561636F6E4465746563F7
:104BB600742074696D65005B002C005D00000000C8
:104BC600008C0F5312E30EFC0EEE0E6B0F0D0A0057
:104BD6006E616E00696E66006F7666000145005A6A
:064BE6005A5A5A5A5A0007
:00000001FF
